:020000040800F2
:10000000D03200206902000873440008D13D000886
:1000100071440008D518000889710008000000002C
:10002000000000000000000000000000FD57000874
:10003000E1190008000000003D46000809580008CA
:10004000830200088302000883020008830200087C
:10005000830200088302000883020008830200086C
:10006000830200088302000883020008830200085C
:10007000830200088302000883020008830200084C
:10008000830200088302000883020008830200083C
:10009000830200088302000883020008830200082C
:1000A000830200088302000883020008830200081C
:1000B000830200088302000883020008830200080C
:1000C00083020008830200088302000883020008FC
:1000D00083020008830200088302000883020008EC
:1000E00083020008830200088302000883020008DC
:1000F00083020008830200088302000883020008CC
:1001000083020008830200088302000883020008BB
:1001100083020008830200088302000883020008AB
:10012000830200088302000883020008830200089B
:10013000830200088302000883020008830200088B
:100140008302000883020008830200087544000847
:10015000830200088302000883020008830200086B
:10016000830200088302000883020008830200085B
:1001700083020008830200088302000800000000D8
:10018000830200088302000869020008690200086F
:100190006902000869020008690200086902000893
:1001A000690200086902000800F002F800F04CF84B
:1001B0000AA090E8000C82448344AAF10107DA45C2
:1001C00001D100F041F8AFF2090EBAE80F0013F0C8
:1001D000010F18BFFB1A43F001031847CC7A000047
:1001E000EC7A0000103A24BF78C878C1FAD85207D8
:1001F00024BF30C830C144BF04680C6070470000A1
:100200000023002400250026103A28BF78C1FBD81F
:10021000520728BF30C148BF0B607047662907F0FE
:100220009784752900F08280002070471FB507F081
:100230008AFC00F023FC04000020002107F0F6FBFC
:10024000E0601FBD10B510BD00F018FD1146FFF7AE
:10025000EDFF07F0DBFB00F036FD03B4FFF7F2FF24
:1002600003BC00F079FD00000948804709480047B9
:10027000FEE7FEE7FEE7FEE7FEE7FEE7FEE7FEE756
:10028000FEE7FEE704480549054A064B70470000B3
:100290009D580008A9010008D02C0020D032002071
:1002A000D02E0020D02E00200FB41CB50C0007AAC1
:1002B000009001D02044401E074B7B4469460190CA
:1002C000069800F0BAFB002C03D06946002000F02D
:1002D000C7FB1CBC5DF814FBAD07000070B50446FD
:1002E00085690068C10601D5302600E02026C007D8
:1002F00007D070BDD4E9012130469047206A401CE8
:1003000020626D1EF6D570BD70B504468569007813
:10031000C00707D170BDD4E9012120209047206A91
:10032000401C20626D1EF6D570BD00002DE9F04125
:100330000646002410687529314616A510D0AFF383
:100340000080002802DA404213A507E031688A07DE
:1003500001D512A502E0490704D511A5012401E049
:10036000AFF3008000210A2206F1240709E0B0FB68
:10037000F2FCB0FBF2F302FB1C003030785418465C
:10038000491C0028F3D123462A463046BDE8F041F7
:1003900000F0E2B8000000002D0000002B0000007B
:1003A000200000002DE9F0474FF0000A894604467E
:1003B000C0F820A02046E1688847002876D025288C
:1003C00006D0D4E901219047206A401C2062F1E761
:1003D000E168204600268847C4F81CA0054600278F
:1003E000C4F818A02A2D09D0284607F027F938B3F9
:1003F00004EB8708303DC8F8185019E059F8041B81
:10040000204604EB87029161E1688847012F054689
:1004100018D1E069002820DA26F020061DE0D8F87F
:10042000180000EB800005EB40003038C8F81800D9
:100430002046E1688847054607F000F90028EED11C
:10044000012F0AD02E2D08D12046E16888477F1C55
:100450000546022F46F02006C4DBA069002803DA17
:10046000404246F00106A061F00701D026F01006D8
:100470006C2D0AD0682D08D04C2D39D06A2D35D07E
:10048000742D35D07A2D33D016E0E1682F46204602
:100490008847B84205460AD16C2F27D04FF48060B8
:1004A000E168064320468847054605E027E06C2FB3
:1004B0001AD04FF4807006430DB3A5F141001928FE
:1004C00002D8203546F400664A4629462046266072
:1004D0004E46FFF7A3FE80B101280BD0F61D26F093
:1004E000070000F1080965E74020E4E78020D7E72E
:1004F0000020D5E706F104095CE7284661E7206A99
:10050000BDE8F0874FF0000200B5134694469646CA
:10051000203922BFA0E80C50A0E80C50B1F1200116
:10052000BFF4F7AF090728BFA0E80C5048BF0CC0C4
:100530005DF804EB890028BF40F8042B08BF704722
:1005400048BF20F8022B11F0804F18BF00F8012B94
:1005500070477047704770472DE9F0470D46994640
:100560009246044600F124080168880604D5E06933
:1005700021F01001216000E00120A84201DD471BAD
:1005800000E00027A1697A1902EB0900081AA061AE
:100590002078C00602D42046FFF7A0FE002608E01F
:1005A000D4E901211AF806009047206A401C761C05
:1005B00020624E45F4DB2078C0060AD52046FFF7BE
:1005C0008DFE06E0D4E9012130209047206A401CCE
:1005D0002062381EA7F10107F4DC07E0D4E901210D
:1005E00018F805009047206A401C2062281EA5F1DB
:1005F0000105F3DC2046FFF787FE2078000602D5D0
:100600000220BDE8F0870120FBE770472DE9FF4F8E
:100610000C461E464FF0FF378BB0D2E90001DDF8E3
:1006200060800A908A46C1F30A5505B93D4600210B
:1006300008464FF00000BAF1000F00F4400005DA60
:1006400000EB80004FF4400101EA50004FEA90595E
:10065000B9F1010F00DDB9460A9850EA4A000ED000
:1006600044F61050A5F2FF3545432F14B8F1000FA2
:100670001ED07542291E1EDDC9F100021CE0B8F132
:10068000010F4FF0000001D0302103E0F24305E0FC
:100690002154401CB042FBDB304600220021215493
:1006A0000B99C1F80880C1E900200FB000F0BCB977
:1006B000BD1B6D1CDEE74A4600DA694206A800F061
:1006C00067FA06AB93E8070003AB83E807005046E0
:1006D0000A9900F048FB8DE80700A0F500501F388C
:1006E00000900398002D0ADD42F21F014A4608449B
:1006F000002303A90390684600F0B1FD09E0A0F5CE
:1007000000504A461F38002303A90390684600F0B2
:10071000BBFD8DE807000004000C03D04FF0FF3054
:10072000410800E01046B8F1000F03D0002200920B
:1007300015461EE0751E05D400F0A4F9303262554E
:100740006D1EF9D5B3460122084302D000227F1C5A
:1007500004E02078302801D100227F1E002A09976A
:1007600084D01DE0112D07DA00F08CF9303262558B
:100770006D1C50EA0102F5D1084302D00098C8B1BF
:100780000EE00021681E05E0235C625C6354225485
:10079000401E491C8142F7DBAB46A81B401E099056
:1007A000002004F80B000B98099AC0F80880C0E9F3
:1007B000002B7AE711264FF0000857E72DE9F04F9C
:1007C00088460446D21D22F0070191B0D1E900010C
:1007D000CDE90A0106F00AFF02460B98C00F01D0CE
:1007E0002D2007E02068810701D52B2002E0202181
:1007F00001EAC000032A099001D0072A05DB03465D
:100800004146204600F084F90BE12078800601D5AE
:10081000E06900E00620B8F1650F814606D0B8F126
:10082000660F18D0B8F1670F70D131E00020B9F130
:10083000110F009001DB112301E009F101030AAA65
:1008400001A90CA8FFF7E2FEDDE90C70002609F112
:100850000105834647E001204B4600904FF00047DA
:100860000AAA01A90CA8FFF7D1FEDDE90DB00C9989
:100870005D46002610B909F101000D18B9EB05001D
:1008800003D4C0F1FF3609F10105A5EB09002BE007
:10089000B9F1010F01DA4FF001090020B9F1110F90
:1008A0000090484601DD112300E003460AAA01A991
:1008B0000CA8FFF7ABFEDDE90C704D460026834621
:1008C000207800070AD4AB4500DA5D4601A8012D67
:1008D00004DD411911F8011C302907D04F4502DA17
:1008E00017F1040F04DA012082460FE06D1EEEE7D7
:1008F000002F02DCED1B3E4403E0781CA84200DD23
:100900007D1CB81B00F1010A4FF00047207800075A
:1009100003D4AA4501DB4FF0FF3A0021B7F1004FA5
:100920000DF143088DF8431024D002202B23002F13
:1009300001DA7F422D230A21021EA0F1010000DC12
:100940005FB197FBF1FC97FBF1F201FB1C7C1746B2
:100950000CF1300C08F801CDEEE7A8F101000370AE
:100960002188090501D5452100E06521A0F1010894
:1009700000F8011C09980FA9A1EB0807FF1D00B1A1
:100980000120411901EBEA70A1693844081A401EA0
:10099000A0612078C00602D42046FFF79FFC09988A
:1009A00028B1D4E901219047206A401C20622078B8
:1009B000C00622D52046FFF791FC1EE0002E04DB86
:1009C000B34502DD01A8805D00E03020D4E90121BB
:1009D0009047206A401C2062761CAAF101005FEA61
:1009E000000A0AD100F04AF8C0680168405CD4E906
:1009F00001219047206A401C2062281EA5F10105B4
:100A0000DCDC07E0D4E9012118F8010B9047206AEB
:100A1000401C2062381EA7F10107F3DC2046FFF7D7
:100A200073FC032011B041E630BCBDE8C08F00006C
:100A300001694A1C02610878704700B58FB0CDE9A2
:100A400001310021059105497944CDE90310114692
:100A50006846FFF7A7FC0FB000BD0000E5FFFFFFF1
:100A60000A6802F8010B0A607047D1E900239A4234
:100A700002D2531C0B601070704700000048704792
:100A8000902C002030B5B0F10A024FEA900E71F1BF
:100A900000034EEA817EB0EB0E0061EB91014FEA5C
:100AA000101E4EEA017E10EB0E0041EB11114FEAD1
:100AB000102E4EEA016E10EB0E0041EB11214FEAB1
:100AC000104E4EEA014E10EB0E0041EB1141401862
:100AD00041F100014FEAD00040EA41704FEAD101F4
:100AE00010EB80054FEA810444EA907444EB010462
:100AF0006D1944EB0404521BA3414FF0000348BF9F
:100B00000A3200D530BD401C41F1000130BD00006B
:100B10002DE9F0411F46044603260168072A01F427
:100B2000006004DB08B116A505E016A503E008B1D6
:100B300015A500E015A521F010002060A069C01ED9
:100B4000A0610FB1401EA0612046FFF7C7FB4FB167
:100B5000D4E9012138469047206A401C2062C01C1D
:100B6000206206E0206AFAE7D4E9012115F8010BBA
:100B70009047761EF8D22046FFF7C6FBBDE8F0810D
:100B80004E414E006E616E00494E4600696E660031
:100B90002DE9F047814616468AB0354878440DC89D
:100BA0008DE80D0032487844801C03AC0DC884E801
:100BB0000D0041F69B300844372190FBF1F290FB89
:100BC000F1F5A5F1800501FB12041B3C02D564423E
:100BD000012000E00020DFF898A080460027FA44BA
:100BE000AAF1BE0A0EE0E0070AD03246684607EBDB
:100BF000470101230AEB810100F046FB8DE8070065
:100C000064107F1C002CEED1194F7F44AE3F19E0D9
:100C1000E80715D007EB04100DF1180A90E80E0054
:100C20008AE80E00C068F04201D198190890324657
:100C3000012306A903A800F027FB03AB83E8070004
:100C40006D10641C002DE3D14FF00103324669465C
:100C5000B8F1000F03A802D000F001FB01E000F0A2
:100C600013FBC9E90001C9F808200AB0BDE8F08704
:100C7000F070000000487047702C00207546FFF7A8
:100C8000F9FFAE4605006946534620F00700854649
:100C900018B020B5FFF7F6FABDE820404FF0000687
:100CA0004FF000074FF000084FF0000B21F0070154
:100CB000AC46ACE8C009ACE8C009ACE8C009ACE897
:100CC000C0098D46704710B50446AFF3008020463A
:100CD000BDE81040FFF7C1BA4FF0013C50F8042BBB
:100CE00051F8043B9A4221D1A2EB0C03934313EA3F
:100CF000CC1317D150F8042B51F8043B9A4215D16C
:100D0000A2EB0C03934313EACC130BD150F8042B42
:100D100051F8043B9A4209D1A2EB0C03934313EA26
:100D2000CC13DBD04FF00000704700BFD01A01BADF
:100D3000B1FA81F101F0180122FA01F0CB40C1F1C2
:100D40002001DBB2C0B2C01A2CFA01F3D11A9143D0
:100D500011EAC311E6D1704701491820ABBEFEE786
:100D60002600020070475FEA400C08BF91F0000FB8
:100D70004FEA8C234FEAC12243EA51514FEA1C50FB
:100D800018BF00F5F0404FEA300018BF41F00041B5
:100D90005FEA6C5C00F02980BCF1FF3F08BF40F0C7
:100DA00080407047130C06BF12044FF0100C4FF038
:100DB000000C130E04BF12020CF1080C130F04BF39
:100DC00012010CF1040C930F04BF92000CF1020C01
:100DD000D30F04BF52000CF1010C11464FF000027A
:100DE000A0F11F00A0EB0C00704711F0004F08BFEE
:100DF000704731F000413FF4D5AF0B0C06BF09043A
:100E00004FF0100C4FF0000C0B0E04BF09020CF158
:100E1000080C0B0F04BF09010CF1040C8B0F04BF6D
:100E200089000CF1020CCB0F04BF49000CF1010C3E
:100E3000CCF12003A0EB0C0022FA03F302FA0CF22F
:100E400041EA030100F10100704720F07F4C80EA85
:100E5000030023F07F47ACEB070303F57C5300F05E
:100E6000004003F1FF032DE980494FEA154B09B417
:100E70004FEA144325EA0B4E24EA03480FF20426F6
:100E800006EB132749083E785FEA320203FB066748
:100E9000C7F5000707FB06F64FEA54374FEAD64678
:100EA00006F1020607FB066CCCF1005C4FEA1C471A
:100EB0002CEA074C07FB06F40CFB06F504EB154681
:100EC0004FEA961634BF00204FF000404FEAD1376A
:100ED00006FB07FC4FEA1C4C0CFB0BF7D21B03FB79
:100EE0000CF761EB07010CFB0EF7B0EB074072EB60
:100EF00017420CFB08F734BFA2EB0742B2EB0742E4
:100F000061EB17414FEA0C444FEA910706FB07FCDF
:100F10004FEA1C4C0CFB0BF7B0EBC74072EB57329F
:100F200003FB0CF734BFA2EBC742B2EBC74261EB45
:100F300057310CFB0EF7B0EBC70072EB57720CFB8E
:100F400008F734BFA2EBC702B2EBC70261EB5771DF
:100F5000039F4FEA816141EA921104EBCC044FEA0E
:100F6000D1374FEA826206FB07FC42EA90124FEA51
:100F700080604FEA1C4C0CFB0BF7D21B03FB0CF7F9
:100F800061EB07010CFB0EF7B0EB074072EB174269
:100F90000CFB08F734BFA2EB0742B2EB074261EB50
:100FA00017414FEA8C554FEA910704EB9C2406FB4E
:100FB00007FC4FEA1C4C0CFB0BF7B0EBC74072EB85
:100FC000573203FB0CF734BFA2EBC742B2EBC74268
:100FD00061EB57310CFB0EF7B0EBC70072EB5772A9
:100FE0000CFB08F734BFA2EBC702B2EBC70261EB00
:100FF000577115EB4C254FEA816141EA92114FEA96
:1010000082624FEAD13742EA901206FB07FC44F1B4
:1010100000044FEA80604FEA1C4C0CFB0BF7D21B1C
:1010200003FB0CF761EB07010CFB0EF7B0EB07407D
:1010300072EB17420CFB08F734BFA2EB0742B2EB8E
:10104000074261EB174115EB1C154FEA813141EA6C
:1010500092414FEA823242EA90424FEA80304FEAB0
:101060000C7644F1000448EA03434EEA0B484FF083
:10107000000EB2EB080C71EB030724BF6246394641
:101080004EEB0E0E4FF0000B0018524149414BEB56
:101090000B0BB2EB080C71EB03077BF1000B24BFC9
:1010A000624639464EEB0E0E4FF0000B00185241CF
:1010B00049414BEB0B0BB2EB080C71EB03077BF1D7
:1010C000000B24BF624639464EEB0E0E51EA020772
:1010D00018BF46F0010616EB0E7655F1000254F1EA
:1010E000000103D5BDE88901BDE80088BDE889019C
:1010F000BDE80048B619524141EB0101A3F10103DB
:10110000704780807F7E7D7C7B7A79787776767574
:101110007473727171706F6E6E6D6C6C6B6A6A69EC
:101120006868676666656464636362616160605F86
:101130005F5E5E5D5D5C5C5B5B5A5A5959585857FF
:101140005756565555555454535352525251515067
:1011500050504F4F4F4E4E4D4D4D4C4C4C4B4B4BBA
:101160004A4A4A4949494848484747474746464600
:10117000454545444444444343434342424242413B
:101180004141002B9C4630D477002BD01CB54FEA50
:10119000370703B44FF010004FF01001BAF1000F01
:1011A00006D0BCF1000FDCBF40F0080040F00801A1
:1011B0004FF000000FBCBDE810400BF1010BBBF17C
:1011C000010F08BF5FEA170722BF12F1010211F1F8
:1011D00001014FF0004143F1000300F0004043EAF9
:1011E00000007047F9D35708D0E746EA064613F1E6
:1011F000400F4FEA16461FDD13F1200FDFBF1643E5
:101200000A46002120335B42BED0C3F1200746EAE4
:10121000064602FA07F74FEA164646EA0706C3F102
:10122000200722FA03F201FA07F721FA03F14FF03F
:10123000000342EA0702A7E746EA020646EA064634
:101240004FEA164646EA0106BCBF46EA0646360C99
:101250004FF000034FF000024FF0000194E72DE93A
:10126000804C9A46934670B491E8380007C831EA3A
:10127000400C48BF34EA430C03D5FFF7E6FDFFF707
:1012800080FFF0BCBDE8008C2DE9804C9A46934667
:1012900070B491E8380007C810F0804F08BF13F011
:1012A000804F03D100F005F8FFF76BFFF0BCBDE8FD
:1012B000008C20F07F4780EA030023F07F4C07EB8F
:1012C0000C03A3F57C5300F00040A3F1FE0392F061
:1012D000000F00F0B38095F0000F00F077802DE94B
:1012E00001494FEA11404FEA144621EA004800FB49
:1012F00006FC24EA064708FB06F607FB08F800FB95
:1013000007F718EB06484CEB164C4FEA124B18EB5C
:1013100007484FEA15464CEB174022EA0B4E0BFBF1
:1013200006FC25EA06470EFB06F607FB0EFE0BFB46
:1013300007F71EEB064E4CEB164C4FF000061EEB6B
:10134000074E4CEB174B18EB0B0840F1000018EB65
:101350000E0B58EB000840F100008F1A4FF000010F
:101360003CBFC943661B14BFB5EB040C00213CBF56
:10137000C943F61B4FEA17444EEA8E0E27EA04458E
:101380004FEA1C4704FB07622CEA074C05FB07F7F2
:101390000CFB05F604FB0CFC16EB074642EB174270
:1013A00016EB0C4642EB1C421BEB060658EB020206
:1013B000414146EA9E0601D5BDE80189B619524170
:1013C00041EB0101A3F10103BDE801894FEA144596
:1013D0004FEA114724EA054621EA074C05FB07F4CA
:1013E00006FB07F70CFB06F105FB0CFC11EB0741B4
:1013F00044EB17444FEA124711EB0C4144EB1C44F9
:1014000022EA074C05FB07F206FB07F70CFB06F682
:1014100005FB0CFC16EB074642EB174216EB0C469D
:1014200042EB1C456A1854F1000148BF7047B619D9
:10143000524141EB0101A3F10103704795F0000F08
:1014400037D04FEA11424FEA144721EA024624EA14
:10145000074C02FB07F106FB07F70CFB06F402FB47
:101460000CFC14EB074441EB17414FEA154714EB12
:101470000C4441EB1C4125EA074C02FB07F506FB37
:1014800007F70CFB06F602FB0CFC16EB074645EBD8
:10149000174516EB0C4645EB1C42121951F10001A1
:1014A00048BF7047B619524141EB0101A3F1010356
:1014B00070474FEA14454FEA114724EA054621EAEE
:1014C000074C05FB07F106FB07F70CFB06F24FF094
:1014D000000605FB0CFC12EB074241EB174112EB37
:1014E0000C4251EB1C4148BF7047921841EB01017F
:1014F000A3F101037047000070B5094D094E0024A7
:1015000035F8141056F8240000F069FC012805D0C5
:10151000641CE4B2052CF3D3052070BD204670BDD9
:10152000A67B0008080000202DE9F04F002487B0BA
:101530000646254DDFF894A003274FF00209DFF897
:10154000908012E08CB1032C0FD0012C0DD0022C16
:101550000BD0042C09D000BF38F81400CDE9029755
:1015600000905EB1012E11D026E0E86C40F0010041
:10157000E864E86C00F001000590EDE700200190C0
:101580005AF82400694600F01BFB15E04FF40410E4
:1015900001905AF82400694600F012FBDFF830B0E1
:1015A0000022ABF1060B0F211BF9040000F028FE0E
:1015B0001BF9040000F017FE641CE4B2052CC1D333
:1015C00007B0002000F006B800100240080000201C
:1015D000A67B000830BCBDE8C08F000070B5054692
:1015E000002408E0002223461146284605F0CEFDDF
:1015F000641CE4B26D1C287808B1052CF2D9BDE852
:101600007040014800F05CBD28010020114810B571
:101610000F49016000214FF47012C0E901120C2241
:10162000C2604FF4A05340228361C0E90421C0E9A5
:10163000071212024162C0E90A12016302F00EFCB5
:10164000044800F055FCBDE81040024800F012BC10
:10165000002400402801002000B58FB04FF48071B5
:101660000691202100910190490100200791C900B5
:1016700003910890099005900B900C900D900A48EA
:1016800003F08AF968B941F288326946064801F0E8
:1016900068FC30B94FF44871034802F0D1FF0028CC
:1016A00000D001200FB000BD7401002000B58FB044
:1016B0004FF480700690C72000900020079008909B
:1016C000099005900B900C900D900A4803F064F976
:1016D00060B941F288326946064801F042FC28B9F7
:1016E0000549044802F0ACFF002800D001200FB0EB
:1016F00000BD00007401002090D003004FF0807105
:1017000001600913416081600911C1600902016132
:101710000020704710B590B04FF480700690702094
:10172000009000204FF08071CDE908010121059063
:10173000CDE90A1007900C9041F288340D902246B2
:1017400069460E4801F00DFC50B922460EA90B481F
:1017500001F0FCFC20B99DF8380010F03A0F02D0DF
:10176000012010B010BD10F0440F01D00820F8E7A0
:10177000000601D50020F4E70220F2E77401002002
:1017800010B5164C14482060204601F030FCA8B972
:1017900003F07AF8012060600420A0601020E0606F
:1017A000000590FAA0F0B0FA80F0401E2061002001
:1017B0006061A061204601F02FFC08B1012010BD3E
:1017C000064803F09BF820B9044803F015F80028F8
:1017D000F5D0042010BD0000001000A0740100200E
:1017E00030B58FB004464FF480700690EB20009027
:1017F0004FF4406007904FF4005001910390002196
:101800004FF04070CDE908100A200590CDE90A217B
:101810000C9141F288350D912A466946064801F03F
:10182000A0FB30B92A462146034801F08FFC00286E
:1018300000D001200FB030BD740100202DE9F0432D
:101840008146C8B2C0F580758FB0954200D9154663
:101850008E180C4612204FF4807100904FF44060B7
:10186000CDE906104801039000204FF04072CDE909
:10187000080205900B900C9041F2883788460D9035
:1018800013480A95019403F087F880B93A466946EF
:101890000F4801F066FB50B93A4649460C4801F042
:1018A000BBFC20B939460A4802F0CAFE18B1012033
:1018B0000FB0BDE8F0832C4404F58070A944B04219
:1018C00001D9351B00E04546B442D9D30020EFE7EB
:1018D00074010020FEE7000070B5002300781C466C
:1018E000342817D00FDCA0F12005142D24D2DFE816
:1018F00005F035232323235623233B3D384E234B2A
:10190000235111111111642832D009DCA0F13505E1
:10191000042D11D8304B03EB400030F8603C1DE043
:10192000B02839D004DC6D2825D06E2804D125E0FC
:10193000B52826D0FF2835D0274DA0F14106343DEB
:101940001A2E03D205EB400333F8823CA0F1610666
:101950001A2E03D205EB400030F8C23C012924D0F6
:1019600025E04AF2DD03F9E72823F7E71123F5E73D
:101970004FF47343F2E74BF21023EFE742F21023E8
:10198000ECE746F28403E9E74FF42043E6E74AF246
:101990001403E3E7C023E1E74FF46C43DEE74FF4C1
:1019A0003343DBE74FF6DD73D8E743F00203012A48
:1019B00001D143F0200309490C2000BF23FA00F2B3
:1019C00002F00F0241F82420001F641CE4B2C0B2F0
:1019D000042CF3D370BD0000887B00086401002054
:1019E000704772B6FEE710B590F825100022022964
:1019F00005D00421C16380F82420012010BD0168B6
:101A00000B6823F00E030B6001680B6823F00103E1
:101A10000B6090F84410046C01F01C03012101FAE2
:101A200003F3636080F8251080F82420104610BD71
:101A300070B5044600F0DEF90546601C02D004488B
:101A40000078044400F0D6F9401BA042FAD370BDE0
:101A5000240000202DE9F84F00230126DFF838C1CB
:101A60000F2793E006FA03F414EA01027ED023F074
:101A700003056544AA46D5F808909D074FEA157EF0
:101A800007FA0EF505EA090B0095B0F1904F05D065
:101A9000424DA84205D14FF0010822E04FF0000866
:101AA0001FE03F4DA84202D14FF0020819E03D4D22
:101AB000A84202D14FF0030813E03B4DA84202D1E7
:101AC0004FF004080DE0394DA84202D14FF005084F
:101AD00007E0374DA84202D14FF0060801E04FF071
:101AE000070808FA0EF8D84526D1DFF8C880D8F8DC
:101AF000009029EA0209C8F8009008F10408D8F813
:101B0000009029EA0209C8F80090DFF8A88008F1DF
:101B10000C08D8F8009029EA0209C8F80090A8F14A
:101B20000408D8F800509543C8F80050009ADAF835
:101B300008509543CAF80850D0F800804FEA43098E
:101B4000032202FA09F248EA0208C0F80080DD0820
:101B500000EB8505AA46D5F820804FEA43794FEA85
:101B6000D96907FA09F528EA050800E00DE0CAF886
:101B700020808568954385604568A5434560C568B4
:101B80009543C560C26AA243C2625B1C31FA03F28C
:101B90007FF468AF00F010B8000001400004004876
:101BA00000080048000C00480010004800140048DD
:101BB000001800480004014018BCBDE8E08F000098
:101BC0002DE9F04FDFF8EC9100220127A9F1040B79
:101BD00085B003254FF00F0C09F1040AABF1040E98
:101BE000E0E000BF07FA02F416EA04037ED00E79A3
:101BF00006F00306012E01D0022E1FD18668009642
:101C0000560005FA06F80496009E26EA0806009695
:101C1000D1F80C80049E08FA06F8009E48EA0608EF
:101C2000C0F80880466891F80480A643C8F30018FD
:101C300008FA02F848EA0608C0F80480D1F80480DF
:101C40006FEA0806B6070AD1C66AA643C8F3C004FD
:101C500094403443C4620C79E443A4070AD0C468B6
:101C60004FEA420805FA08F6B4438E6806FA08F609
:101C70002643C6600C7904F00304022C11D1D40869
:101C800000EB84060296D6F820805407E60E0CFA84
:101C900006F428EA04080C69B440029E44EA0804E9
:101CA000346204685600029605FA06F6B4430E79CB
:101CB00006F00308029E08FA06F848EA0408C0F88D
:101CC00000804C6814F4403F6BD03B4C266E46F0CD
:101CD00001062666246E22F0030604F00104009437
:101CE000364C34440294A468960700E059E04FEA69
:101CF00016780CFA08F6B443B0F1904F04D0304E89
:101D0000B04203D101261BE0002619E02D4EB0425F
:101D100001D1022614E02C4EB04201D103260FE07F
:101D20002A4EB04201D104260AE0294EB04201D128
:101D3000052605E0274EB04201D1062600E0072621
:101D400006FA08F62643029CA660D9F800404E46E3
:101D5000D1F804809C435FEAC82800D51C43346056
:101D6000DAF800405646D1F804809C435FEA8828A0
:101D700000D51C433460DBF800405E46D1F8048097
:101D80009C435FEA883800D51C433460DEF800408D
:101D90007646D1F804809C435FEAC83800D51C43DE
:101DA0003460521C0B681E46D3407FF41BAF05B055
:101DB00000F012B808040140001002400000014089
:101DC0000004004800080048000C004800100048CB
:101DD000001400480018004830BCBDE8C08F0069FE
:101DE000084000D0012070470AB1816170478162CC
:101DF0007047000001488068704700002400002000
:101E000002488168027811448160704724000020F4
:101E100010B50024032000F013FA0F2000F008F89A
:101E200008B1012401E000F0B7F9204610BD000020
:101E300070B50E4E05460024307898B14FF47A7193
:101E4000B1FBF0F00A490968B1FBF0F001F0ACFF1A
:101E500040B9102D06D200222946501E00F0D0F9BC
:101E6000756000E00124204670BD000024000020C1
:101E7000300000202DE9F041044690F835000121A2
:101E8000012801D0022830D194F8340001280CD068
:101E9000012084F83400022784F83570FFF7AAFF88
:101EA00006464FF47A7800250CE00220BDE8F08168
:101EB000FFF7A0FF801B404504D9A76384F8345086
:101EC0000320F3E720688068C0434007F0D5002076
:101ED0005FF01401226801EB8003D550401C0F28ED
:101EE000F8D9204600F0ECF801460846DEE700008D
:101EF0002DE9F041040004D094F83500002518B114
:101F000007E00120BDE8F08184F83450204600F05D
:101F10006FF8022084F835002068016821F0010183
:101F2000016000205FF01401226801EB8003D550AE
:101F3000401C0F28F8D92068816841F004018160B5
:101F4000D4E901010843D4E90A1211430843E169C5
:101F50000843216A0843A1690843616A084321686C
:101F60004A68224B1A4010434860204601F0FAFFAD
:101F70000600C7D1D4E903010843226B616911430C
:101F8000084321680A6822F0FE02104308602068B6
:101F9000016841F001010160FFF72CFF07464FF493
:101FA0007A7806E0FFF726FFC01B404501D90820DC
:101FB0000EE020688068C043C007F3D1FFF71AFF26
:101FC000074608E0FFF716FFC01B404503D9102065
:101FD000A063032096E720688068C043C006F1D460
:101FE000A563012084F8350030468BE70E0000FC25
:101FF000F0B5A9B00446142122A8FEF783FA88217F
:102000006846FEF77FFA2A49206888424DD14FF48E
:102010000030061200902196684601F067F908B179
:10202000FFF7DFFC2348816D41F400718165816D0C
:1020300001F400712791C16C41F00401C164C16CCD
:1020400001F004012791C16C41F00101C164C16C30
:1020500001F001012791C16C41F00201C164C06C23
:10206000022500F002002790082022900024CDE9EC
:1020700023540B27CDE9254722A90F48FFF7A0FDE0
:102080004FF4E0602290CDE92354CDE9254722A901
:102090004FF09040FFF794FD2296CDE92354CDE90F
:1020A000254722A90548FFF78BFD29B0F0BD0000A8
:1020B00000240040001002400008004800040048CE
:1020C0002DE9F041044608202168C8602068816835
:1020D00041F004018160FFF78DFE054600264FF4B4
:1020E0007A770BE0FFF786FE401BB84206D9042042
:1020F000A06384F834600320BDE8F0812068806824
:10210000C0430007EED4012084F8350084F8346021
:102110000020F1E72DE9F047044690F835009A4693
:1021200090468946012804D0022802D00120BDE84B
:10213000F08794F83500012822D194F83400012862
:102140000BD0012084F83400022684F83560FFF7B4
:1021500051FE05464FF47A770DE00220E7E700BF15
:10216000FFF748FE401BB84205D9A663002084F85B
:1021700034000320DBE720688068C0434007EFD5C8
:102180001421226801EB8900115801EA080141EA93
:102190000A0111500020CAE7094808B5016E41F054
:1021A00001010166016E01F001010091816D41F0B4
:1021B00080518165806D00F08050009008BD000066
:1021C0000010024000280DDB00F01F0201219140A9
:1021D0004009800000F1E020C0F88011BFF34F8F6C
:1021E000BFF36F8F7047002809DB00F01F02012149
:1021F00091404009800000F1E020C0F800117047D4
:10220000F0B40E4B1B680C46C3F30223C3F1070561
:10221000042D00D90425191D072901D2002300E04F
:10222000DB1E012606FA05F1491E214099409E4019
:10223000761E16403143F0BC05F0F0B90CED00E01D
:10224000064900F0070208684FF6FF03184040EA0D
:102250000220034A10430860704700000CED00E0C4
:102260000000FA0501220168C0F8D824002280F895
:10227000CC24886940F000608861486D024A1043B0
:102280004865002070470000030000107047006898
:10229000416200207047F0B50368586A39B19C6A02
:1022A0004FF4827600EB144400204D1E0AE040EA11
:1022B000024098620FE006EB8007DF59401C04EBF8
:1022C0001744C0B2A842F6D344EA02404FF48072E9
:1022D00002EB810158500020F0BDD0F8E00403F07B
:1022E0009CBD01EBC10200EB8202D0F8E004126A4F
:1022F00003F0F1BC01EBC10200EB8202D0F8E00474
:10230000D2F8602203F042BDD0F8E00403F087BDAC
:102310000A0601F00F0101EBC10100EB810101D5BB
:10232000143101E001F51571006804F07DBD70B550
:1023300004460B0601F00F0000EBC00104EB810125
:102340004FF001024FF0000502D54A75143103E049
:1023500081F8555201F51571087094F8940401281C
:1023600008D084F89424206804F0C4FA84F89454C3
:10237000002070BD022070BD70B5044601F00F0052
:102380002279904201D9012070BD0B0601F00F01A6
:1023900001EBC10104EB81014FF001024FF0000598
:1023A00002D54A75143103E081F8555201F51571D3
:1023B0008D70087094F89404012808D084F894244F
:1023C000206804F0E7FB84F89454002070BD0220DC
:1023D00070BD10B5044690F8940401280AD001207D
:1023E00084F89404080607D501F00F01206804F072
:1023F0008CFD04E0022010BD206804F06AFD00207E
:1024000084F8940410BD01F00F0101EBC10100EB51
:102410008100D0F8680270472DE9F04104460F06AC
:1024200001F00F0000EBC00104EB81014FF0010649
:102430004FF0000502D54E75143103E081F8555276
:1024400001F51571C2F30A0208708A600B714A78AF
:1024500002B14883022B00D14D7194F894040128F5
:1024600009D084F89464206804F0C8F9284684F8F8
:102470009454BDE8F0810220FBE710B501F00F0491
:1024800004EBC40100EB8101C1E998230022C1F8EB
:10249000682281F8552281F85442006801F51571CF
:1024A00004F0D0FB002010BD70B504460D4601F0CD
:1024B0000F002179884201D9012070BD29064FF013
:1024C00000064FF0010206D500EBC00104EB8101CC
:1024D0004A75143107E005EBC50104EB810181F871
:1024E000556201F515718A70087094F894040128FA
:1024F00007D084F89424206804F078FB280702D0E1
:1025000006E0022070BD04F29C41206804F020FB2C
:1025100084F89464002070BD10B501F00F0404EB42
:10252000C40100EB8101C1E9082300228A62012273
:102530004A7501F8144F006804F084FB002010BDB8
:102540002DE9F84F05680446284604F008FD0028E8
:102550007DD1206804F02FFD002878D0D5F8080838
:10256000C0F30D20C4F8D404206804F024FD8007D3
:1025700004D52068416901F002014161206804F03E
:102580001AFDC10604F29C40009034D52068816990
:1025900021F0100181612F6A07F00F0000EBC000ED
:1025A00004EB8006C7F3434006F51576022802D0F7
:1025B000062811D01AE047F6F070074216D0C7F38C
:1025C0000A1217462846F16804F0F9FCF06838440E
:1025D000F0607069384408E008222846009904F049
:1025E000EEFC7069C7F30A110844706120688169C4
:1025F00041F010018161206804F0DDFC00034FF020
:10260000080B4FF0000A4FF001097CD50026206826
:1026100004F0B0FC074680E0F8077CD0F1B22068F7
:1026200004F0C1FC8046C0071FD005EB4611C1F87D
:10263000089B216820460B6C01EB4612D2F8081B60
:10264000DFF830C463450DD10B0406D500E03BE252
:102650004FF40040C2F8080B07E0890602D520219C
:10266000C2F8081BF1B2FFF745FE5FEA087015D506
:1026700005EB4610C0F808BB2068016C00EB461261
:10268000D2F8080BFC4B994205D9000403D54FF44E
:102690000040C2F8080B204600F039FB5FEAC86032
:1026A00004D505EB46111020C1F8080B5FEA8870CD
:1026B0001DD56869000605D5D5F8040840F4806189
:1026C000C5F8041806EBC60004EB800090F857121A
:1026D00000F51570012905D180F803A0F1B220465C
:1026E00000F0FBF905EB46110220C1F8080B5FEA88
:1026F000886004D505EB46112020C1F8080B5FEA7D
:10270000884008D501E00BE005E005EB46104FF4EA
:102710000051C0F8081B7F08761C002F7FF47CAFA7
:10272000206804F048FC40035BD5206804F01BFCE3
:102730000746002653E0F8074FD0F1B2206804F0B6
:1027400020FC8046C00710D006F00F0109FA01F006
:10275000D5F834188143C5F8341805EB4610C0F895
:102760000899F1B22046FFF7BCFD5FEA087003D577
:1027700005EB4611C1F808B95FEAC86004D505EB5E
:1027800046111020C1F808095FEA486004D505EB3E
:1027900046104021C0F808195FEA887016D5314606
:1027A000284604F0B2FB06EBC60004EB8000C17DB6
:1027B0001430012905D180F803A0F1B2204600F0C1
:1027C00088F905EB46110220C1F808095FEA0860A4
:1027D00003D53146204601F0E5FE7F08761C002F28
:1027E000A9D1206804F0E7FB002811DAD5F8040825
:1027F00020F00101C5F8041894F8CC0401283BD05E
:10280000204600F053FA2068416901F0004141611F
:10281000206804F0D0FB00050BD5D5F80808C007E8
:1028200002D0204600F098FA2068416901F4006166
:102830004161206804F0BFFB00010AD520684169AE
:1028400001F00061416194F8CC04E0B1204600F051
:1028500083FA206804F0AFFBC00472D5D5F80408F1
:1028600020F00100C5F804081021206804F04DFB99
:1028700000214FF67F322CE084F8CCA400212046C2
:10288000FFF704FDBFE784F8CC942068406D012178
:10289000C0F38300C4F8D0042046FFF7F7FCD8E764
:1028A00005EB4110C0F80829D0F8003923F40013D3
:1028B000C0F80039C0F8082BD0F8003B23F400130F
:1028C000C0F8003BD0F8003B43F00063C0F8003B89
:1028D000491C20798842E3D8D5F81C0840F0011142
:1028E000C5F81C18E07B002828460DD0D0F88408D5
:1028F00040F00B01C5F88418D5F8440840F00B01EE
:102900002846C5F844180DE0D0F8140842F22B010F
:102910000843C5F81408D5F8100840F00B01284604
:10292000C5F81018D0F8000820F4FE61C5F80018AA
:102930002068009904F00CF92068416901F4805185
:102940004161206804F037FB800416D5206803F04D
:1029500095FF206804F0F7FAE07100F041FF23686A
:102960000146E279184604F089FB204600F08AF916
:102970002068416901F400514161206804F01BFBAB
:10298000000707D5204600F0ABF92068416901F047
:1029900008014161206804F00EFB000616D5A86905
:1029A00020F08001A96101260DE000BF06EBC60002
:1029B00004EB800090F85702012803D1F1B22046C1
:1029C000FFF7A6FC761C2079B042EFD8206804F00F
:1029D000F2FAC0021FD501264F4614E005EB46105F
:1029E000D0F8001906EBC60004EB8000027E012A35
:1029F00008D1002906DAC775F0B240F08001204600
:102A0000FFF786FC761C2079B042E7D82068416940
:102A100001F480114161206804F0CDFA800236D5BE
:102A200001204B462BE000BF05EB4011D1F8001B05
:102A300000EBC00204EB820292F85862012E1DD115
:102A400000291BDA94F8D46401F4803106F0010601
:102A5000B14213D182F85732A96941F08002AA61CC
:102A6000696909060AD4D5F8040840F40070C5F86D
:102A7000040807E00A31544F0A30544F401C2179B2
:102A80008142D1D82068416901F400114161206878
:102A900004F091FA400007D52046FFF71EFC20689D
:102AA000416901F080414161206804F084FA4007E7
:102AB0000AD520684568680702D52046FFF724FC40
:102AC000206841682943416000F000B818BCBDE8A7
:102AD000E08FD0F8E00403F004BAD0F8E00403F08B
:102AE00014BA0000F8B5040004D094F89504002549
:102AF00010B106E00120F8BD84F89454204600F09F
:102B000059F8032084F89504A571206804F01AF898
:102B1000207C8DF8000094E80F0003F0BDFE022633
:102B2000B8BB0021206804F069FA90BB002001279F
:102B30000DE000BF00EBC00104EB81014F7508758B
:102B4000C8850D76CD610D62401CC0B24D62217901
:102B50008142EFD8002011E000EBC00104EB8101BD
:102B600081F8555281F8540281F85852C1F85C52EC
:102B7000C1F86052401CC0B2C1F864522179814250
:102B8000EAD8207C8DF8000094E80F0003F034FFB1
:102B900010B184F89564ADE7657484F89574207B72
:102BA000012802D12046FFF75DFB206803F016FFE5
:102BB0000020F8BD30B5A9B00446142122A8FDF7C5
:102BC000A1FC88216846FDF79DFC2068B0F1A04F6C
:102BD00053D14FF40050009040031B90012001900E
:102BE0000290302003900720049004200225CDE9B4
:102BF000050580040790684600F078FB08B1FEF7F1
:102C0000F0FE1F4CE06C40F00100E064E06C22A993
:102C100000F0010027904FF4C050CDE922050020BC
:102C20002490032025900A2026904FF09040FEF734
:102C3000C7FFE06C40F48050E064E06C00F480502A
:102C40002790A06DC0000ED4A06D40F08050A0650C
:102C5000A06D00F08050279000F0CAF8A06D20F021
:102C60008050A06501E000F0C3F800221146432027
:102C7000FFF7C6FA4320FFF7B6FA29B030BD0000CF
:102C80000010024070B50446C0790125022801D029
:102C9000FEF7A7FE2946D4F8E00403F0B2F9D4F811
:102CA000E004BDE8704003F067B9000010B50446C9
:102CB0000068D0F8001E21F00101C0F8001EE07A83
:102CC00030B10648016821F00601016002F09EFD66
:102CD000D4F8E004BDE8104003F07CB910ED00E04A
:102CE000D0F8E00403F080B910B5044690F89404DD
:102CF00001280AD0012084F894046174206804F04B
:102D0000ABF9002084F8940410BD022010BDD0F867
:102D1000E02400F29C41104603F086B910B5044649
:102D2000006894F89414012906D0012184F89414C1
:102D3000617B012902D005E0022010BD816B41F4C6
:102D400080318163206804F0BEF8206803F038FE0B
:102D5000002084F8940410BD10B504460068D0F833
:102D6000001E41F00101C0F8001ED4F8E00403F099
:102D7000ABF9E07A002804D00248016841F006016E
:102D8000016010BD10ED00E01649B0F5007F086845
:102D9000C0F3412009D0022805D0086820F4C060A3
:102DA00040F480600860002070470128FBD008686C
:102DB00020F4C06040F4007008600B4832220068C4
:102DC00050430A4AB0FBF2F0401C00E0401E4A6942
:102DD000520501D50028F9D148694005E3D5032003
:102DE00070470000007000403000002040420F009B
:102DF0000248416841F480614160704700700040C2
:102E00000248006800F4C060704700000070004095
:102E10000248016841F48071016070470070004011
:102E2000F8B504460025FEF7E5FF064694F839009C
:102E300080073BD5002084F83800206801684907E6
:102E40000CD5016821F004010160606BFEF7CBFD39
:102E5000050003D0E06B40F00400E0632068816867
:102E60004FF0010789061FD5016841F0020101609A
:102E7000206C0090334601220221204601F068FDBB
:102E8000050013D121680220C860206C00903346F1
:102E900000222021204601F05BFD050006D12068BC
:102EA000416921F04061416184F839702846F8BDDC
:102EB0002DE9F84F1E4615468A460446FEF79AFF4E
:102EC000814694F8380001280ED0012784F8387024
:102ED00094F839004FF00008012807D05FF0020095
:102EE00084F8388000F03AB80220FBE7C4F83C8050
:102EF000422084F839004B460022202120460096CB
:102F000001F026FD0028EBD121682868886221683D
:102F1000686848622168A868C862206829690268F0
:102F200022F4400242F4800211430160E968CAF8C9
:102F300028104FF000625146204601F0A9FB4B4695
:102F4000012208212046009601F002FD0028C7D189
:102F500022680821D16084F83970C1E718BCBDE847
:102F6000E08F2DE9F84F17468B460446FEF742FFE7
:102F7000824694F8380001280ED0012684F8386083
:102F800094F839004FF00008012807D0022584F892
:102F90003880284600F028B80220FBE7C4F83C80BF
:102FA0004FF0020984F83990534600222021204630
:102FB000009701F0CDFC0500E9D1002259462046DA
:102FC00001F066FBDBF8240058B9534601220221C8
:102FD0002046009701F0BCFC0500D8D12168C1F85B
:102FE0000C9084F83960D2E718BCBDE8E08F10B5CA
:102FF00004000ED02068016821F001010160204624
:1030000000F05AF80020E06384F8390084F83800B2
:1030100010BD012010BD0000F8B50446FEF7EAFE21
:10302000064624B194F83900002510B109E00120CA
:10303000F8BD84F83850204600F054F841F288304A
:10304000206420680168A2686FF0FF0321F47061BA
:1030500003EB022211430160206C009033460022F2
:103060002021204601F074FCF0B921680A68104B59
:103070001A40237942EA0362E3681A430A60D4E9FA
:1030800005121143226853680A4E3340268A43EAE8
:1030900006431943516021680A6842F001020A6040
:1030A000E563012184F8391084F83850F8BD000038
:1030B000EFFFFF00FEF8E0FF00680749884209D1F2
:1030C0000648016D21F4807101654FF47C4104488C
:1030D000FEF7C0BC70470000001000A000100240C6
:1030E0000010004810B586B0044614216846FDF76C
:1030F00009FA1349206888421FD11248016D41F432
:1031000080710165016D01F480710591C16C41F020
:103110001001C164C06C694600F0100005904FF4C6
:103120007C40009002200190002002900320039038
:103130000A2004900448FEF743FD06B010BD0000CD
:10314000001000A000100240001000482DE9F84FC8
:1031500015460F460446FEF74DFE824620688169FB
:1031600094F8382000F12009012A0DD0012684F8B6
:10317000386094F839204FF00008012A06D0022068
:1031800084F8388000F044B80220FBE7C4F83C80A3
:10319000BFB3222284F839200269521C22630269DB
:1031A000521CE262A762426922F0406242F08062F1
:1031B0004261206881610EE00621204601F0C8FBD3
:1031C000E0B999F80000A16A0870A06A401CA062EA
:1031D000206B401E2063206B53464FF00102009588
:1031E0000028E9D14FF00201204601F0B1FB28B9D7
:1031F00021680220C8602046FFF712FE84F839607B
:10320000BEE7FFE7E06B40F00800E0630120B7E7AE
:1032100018BCBDE8E08F00002DE9F84F15460F46B9
:103220000446FEF7E7FD8246206894F8381000F166
:10323000200901290ED0012684F8386094F839104D
:103240004FF00008012907D05FF0020084F83880B1
:1032500000F040B80220FBE7C4F83C809FB3122185
:1032600084F839100169491C61620169491C2162B5
:10327000E761416921F0406141610EE0042120468F
:1032800001F066FBE0B9E069017889F80010E069B7
:10329000401CE061606A401E6062606A53464FF005
:1032A000010200950028E9D14FF00201204601F00B
:1032B0004FFB28B921680220C8602046FFF7B0FD07
:1032C00084F83960C2E7FFE7E06B40F00800E06394
:1032D0000120BBE718BCBDE8E08F00000248016890
:1032E00041F0040101607047001002402DE9F84FE1
:1032F000044600270088E54D3E46010504F1200BF9
:103300001DD5606E78B1B0F5800F11D0B0F5000F0B
:1033100004D0B0F5400F22D001270FE0E86840F458
:103320008030E8601BE00021201D01F069FB03E014
:103330000021584601F0FAFB070010D03E462088D5
:10334000C00426D5A06EC0B1B0F1807F1AD0B0F114
:10335000007F0DD0B0F1407F19D0012718E0D5F8DB
:103360008800616E20F440000843C5F88800E6E755
:10337000E86840F48030E86009E00021201D01F099
:103380003FFB03E00021584601F0D0FB0746F7B1B0
:103390003E46206880033AD5A86D4FF00008C00073
:1033A00009D4A86D40F08050A865A86D4FF00108C1
:1033B00000F080500090DFF8D8A2DAF8001041F455
:1033C0008071CAF80010FEF715FD814610E0D5F8AF
:1033D0008800A16E20F040700843C5F88800D8E747
:1033E000FEF708FDA0EB0900022801D9032705E03C
:1033F000DAF80000C005F3D5002F7CD04FEA0706AD
:10340000B8F1000F03D0A86D20F08050A865207897
:10341000C00707D0D5F88800A16B20F0030008434F
:10342000C5F888002078800707D5D5F88800E16BBB
:1034300020F00C000843C5F888002078400707D525
:10344000D5F88800216C20F030000843C5F88800CA
:103450002078000707D5D5F88800616C20F0C000FF
:103460000843C5F888002078C00607D5D5F888003D
:10347000A16C20F440700843C5F8880020788006CD
:1034800007D5D5F88800E16C20F440600843C5F802
:1034900088002088800507D5D5F88800E16D20F4E4
:1034A00040200843C5F888002088400507D5D5F896
:1034B0008800216E20F440100843C5F88800207869
:1034C000400607D5D5F88800216D20F44050084308
:1034D000C5F888002078000607D5D5F88800616D0A
:1034E00020F440400843C5F888002088C00509D56D
:1034F000D5F8880000E01CE0A16D20F440300843BE
:10350000C5F8880020884FF0006780044FF080687D
:103510004FD5D5F88800E16E20F040600843C5F82B
:103520008800E06EB8423CD1E86840F48010E86062
:103530003FE0D5F8900010F4407015D0D4F8841016
:10354000814211D0D5F89000D5F8901020F4407049
:1035500041F48031C5F89010D5F8901021F48031F5
:10356000C5F89010C5F89000C00710D0FEF742FCD7
:10357000074641F2883906E0FEF73CFCC11B49458D
:1035800001D903263CE7D5F890008007F4D5D5F89B
:103590009000D4F8841020F440700843C5F89000DF
:1035A0002EE7404505D10121201D01F029FA00B187
:1035B00006462068000317D5D5F88800216F20F053
:1035C00040600843C5F88800206FB84204D1E8681D
:1035D00040F48010E86007E0404505D10121201D3E
:1035E00001F00EFA00B106462068400317D5D5F861
:1035F0008800616F20F040600843C5F88800606F64
:10360000B84204D1E86840F48010E86007E0404523
:1036100005D10121201D01F0F3F900B106462088F3
:1036200040041AD5D5F88800A16F20F04050084317
:10363000C5F88800A06FB0F1805F03D0B0F1005FE3
:1036400005D00AE00221201D01F0DAF903E0022191
:10365000584601F06BFA00B106462088000407D5F1
:10366000D5F88800E16F20F080400843C5F8880055
:103670002068C00307D555F8880FD4F8801020F0D3
:10368000004008432860304600F004B800100240B3
:103690000070004018BCBDE8E08F00002DE9F04745
:1036A0000F4605006BD0494E306800F00700B84265
:1036B00009D2306820F0070038433060306800F0ED
:1036C0000700B8425BD12878414C80070AD5A8682A
:1036D000A16801F0F001884204D9A16821F0F0014D
:1036E0000143A1602878C0072CD06868032811D056
:1036F000022812D0216898B1490500293FDAA16853
:1037000021F003010143A160FEF774FB804641F202
:10371000883910E021688901EFE721688903ECE727
:103720008907EAE7FEF766FBA0EB0801494502D9E5
:103730000320BDE8F087A068696800F00C00B0EBDA
:10374000810FEFD1287880070AD5A868A16801F019
:10375000F001884204D2A16821F0F0010143A16088
:10376000306800F00700B8420BD9306820F007003D
:1037700038433060306800F00700B84201D00120C3
:10378000D7E72878400705D5A068E96820F4E0600D
:103790000843A0602878000706D5A068296920F4AE
:1037A000605040EAC100A06000F020F8A168094A1A
:1037B000C1F30311515C01F01F01C84006490860C4
:1037C00006480068BDE8F047FEF732BB0020024023
:1037D00000100240B07B00083000002028000020CC
:1037E00001480068704700003000002070B525498E
:1037F000002318468A68CC6812F00C0204F0030615
:10380000214C4FEA640509D00C2A05D0042A32D095
:10381000082A00D1284670BD012E10D10B681B0765
:1038200004D4D1F89430C3F3032302E00B68C3F34C
:103830000313164E56F82330DAB10C2AEBD1C868C0
:1038400000F00300022818D0032818D01846CA68D0
:10385000CB68C2F30212C3F306234343521CB3FBEB
:10386000F2F2C868C0F34160401C4000B2FBF0F0C7
:1038700070BD184670BD204670BD2046E7E728465B
:10388000E5E70000001002400024F400C07B0008BF
:103890002DE9F84304006FD0FD4DA86800F00C0638
:1038A000E86800F003072078C00664D576B10C2ED6
:1038B00001D1012F0AD0A069002828687AD040F0F1
:1038C00001002860FEF796FA80465DE028688007D0
:1038D00002D5A0690028DED0216A2868000703D538
:1038E000286800F0F00004E0D5F89400F02202EA25
:1038F0001010814216D9084601F09CF900283BD1EE
:10390000286840F0080028602868216A20F0F0004C
:10391000084328606868E16920F47F4040EA01209C
:10392000686016E0286840F0080028602868216A6E
:1039300020F0F000084328606868E16920F47F40C7
:1039400040EA0120686026B9206A01F073F9002876
:10395000D5D1FFF74BFFA968CE4AC1F30311515CE3
:1039600001F01F01C840CC490860CC480068FEF750
:103970005FFA00287ED12EE0CAE000BFFEF73AFAD7
:10398000A0EB0800022876D828688007F6D52868BA
:1039900040F0080028602868216A20F0F000084301
:1039A00028606868E16920F47F4040EA012068608F
:1039B00011E0FFE720F001002860FEF71BFA8046C7
:1039C00006E000BFFEF716FAA0EB08000228DAD8DE
:1039D00028688007F6D42078C00740D0082E18D079
:1039E0000C2E01D1032F14D06068B0F5803F17D0A2
:1039F000B0F5A02F286817D020F480302860286800
:103A000020F4802028606068E0B1FEF7F3F980467A
:103A100014E02868800322D56068002878D01EE072
:103A2000286840F48030EDE740F480202860F7E714
:103A3000FEF7E0F9A0EB08006428A4D8286880030A
:103A4000F6D50CE0FEF7D6F9804605E0FEF7D2F990
:103A5000A0EB0800642896D828688003F6D4207864
:103A600080073BD5042E11D00C2E01D1022F0DD092
:103A7000E06801E086E1D6E0002828681ED040F426
:103A800080702860FEF7B6F907460CE0286840050C
:103A90000CD5E0680028C1D008E000BFFEF7AAF905
:103AA000C01B022893D828684005F7D56868217C98
:103AB00020F0F85040EA016068600FE020F4807068
:103AC0002860FEF797F9074605E000BFFEF792F978
:103AD000C01B0228B1D828684005F7D42078000719
:103AE00029D560690028D5F8940012D040F0010073
:103AF000C5F89400FEF77EF9074604E0FEF77AF970
:103B0000C01B022899D8D5F894008007F6D512E09A
:103B100000E120F00100C5F89400FEF76BF90746BC
:103B200005E000BFFEF766F9C01B02287BD8D5F878
:103B300094008007F6D42078400766D5A86D00274A
:103B4000C00008D4A86D40F08050A865A86D01277A
:103B500000F08050009052480168C90512D40168F5
:103B6000814641F480710160FEF744F9804605E02A
:103B7000FEF740F9A0EB0800022854D8D9F800005D
:103B8000C005F5D5A068012816D00528D5F8900005
:103B900017D020F00100C5F89000D5F8900020F073
:103BA000040000BFC5F89000A06841F28839C0B198
:103BB000FEF720F980460FE0D5F8900040F00100B4
:103BC000F0E740F00400C5F89000F5E7FEF712F9C1
:103BD000A0EB0801494526D8D5F890008007F5D517
:103BE0000EE0FEF707F9804606E000BFFEF702F997
:103BF000A0EB0801494516D8D5F890008007F5D408
:103C00001FB1A86D20F08050A865A06AF0B302280B
:103C10000AD00C2E7ED0286820F080702860FEF735
:103C2000E9F80446B0E0ACE0E868E26A00F00301BD
:103C3000914229D1216B00F07002090110399142A3
:103C400022D1626B00F4FE41B1EB022F1CD1A26BBA
:103C500000F40031072A01D0012200E00022914245
:103C600012D1A18F00F4C00249084905A1F5001145
:103C7000914209D194F8401000F0C060490849060B
:103C8000A1F1007181425ED00C2E0BE072E00000C9
:103C900000100240B07B0008300000202800002007
:103CA0000070004079D02868400176D42868C000B0
:103CB00073D4286820F080702860FEF79BF80646D1
:103CC00005E000BFFEF796F8801B022859D8286847
:103CD0008001F7D4D4E90B016FF00F0202EB011160
:103CE0000843A18F5204490802EB4151626B41EA3B
:103CF0000221084394F840104FF07E42490802EB3D
:103D000041610843A16B090940EA4140E968244A3E
:103D1000114000E041E00843E860286840F080700E
:103D20002860E86840F08070E860FEF763F80446B9
:103D300005E000BFFEF75EF8001B022821D82868C6
:103D40008001F7D527E02868800124D4286840F056
:103D500080702860E86840F08070E860FEF74AF8FC
:103D6000044604E0FEF746F8001B022809D828683C
:103D70008001F7D50FE000BFFEF73CF8001B0228DA
:103D800002D90320BDE8F88328688001F4D4E868EC
:103D900004490840E8600020F4E70120F2E7000051
:103DA0008C809DF9FCFFEEFE10B5401EB0F1807FC7
:103DB00001D3012010BD4FF0E02460610F21601796
:103DC00003F02CFC0020A06107202061002010BD22
:103DD000FEE70000F0B500230A24302537261F46F1
:103DE00011E000BFB4EB107F02D905EB107C01E0BD
:103DF00006EB107C01F813C001EB430C00015B1CC7
:103E00008CF80170DBB29342ECD3F0BD1CB50346D5
:103E100004A207216846FCF747FA6846FDF7DEFB77
:103E20001CBD000025366C7500000000FDF7D6BBF8
:103E30001FB510EE100A03F015FECDE9000104A233
:103E4000072102A8FCF730FA02A8FDF7C7FB1FBD47
:103E5000252E316620430000FDF7D8BB30B5B9B040
:103E6000142122A8FCF74EFB442127A8FCF74AFBAB
:103E700088216846FCF746FB364CA06D40F0805028
:103E8000A065A06D002500F0805038900420319589
:103E900027900120299027A8FFF7FAFC00B1FEE740
:103EA0004FF400300090401221906846FFF71EFA50
:103EB000E06C40F00100E064E06C00F0010038903C
:103EC000E06C40F00200E064E06C00F0020038902A
:103ED000E06C40F00400E064E06C00F00400389016
:103EE000E06C40F00800E064E06C22A900F00800FB
:103EF000389048F2C07022900220CDE923050320BB
:103F000025900B2026904FF09040FDF759FE4FF280
:103F10003320229022A91048FDF752FE4FF4FC7086
:103F2000229022A90D48FDF74BFE4FF47F402290CE
:103F300022A90B48FDF744FE0220FDF779FDA06D94
:103F400040F40070A065A06D00F40070389039B0A6
:103F500030BD000000100240000400480008004886
:103F6000000C004870B50446FDF744FF05464FF4C9
:103F70007A7608E0FDF73EFF401BB04203D90120EE
:103F8000A063032070BD20688068C0438006F1D420
:103F9000002070BD2DE9F0410546D0F8D40205EBB4
:103FA0008000D0F8C042002C1ED004F580510F4E86
:103FB000087F38B9886928B1607A18B931782846FD
:103FC00002F062F80A4F2846397802F05DF8607A0C
:103FD000022809D13978284602F056F83178284667
:103FE000BDE8F04102F050B8BDE8F081E1000020EA
:103FF000E00000202DE9F0410646D0F8D40206EB9F
:104000008000D0F8C042002C5FD004F5805568696C
:104010006863A869A8632E480178304601F01EFF46
:104020001F280AD12B492869884206D1697F0129B6
:1040300003D8A87F08B1102808D9697F202305225A
:10404000304601F0D6F9022060720AE041F21F000A
:104050002218304600F084FE0028207A08DA05286D
:1040600004D03046BDE8F041FFF794BF012127E0BE
:1040700002282AD0012828D0032826D0E768F7B1E3
:10408000D6F8D412304606EB810104F11002D1F8C3
:10409000C052002D19D005F580518B69BB4200D369
:1040A0003B468C6BE41B8C63002481F83C4004216C
:1040B000297209490978BDE8F04102F012B80021DF
:1040C0003046BDE8F04100F0E3B8BDE8F081000003
:1040D000E100002055534243E000002010B50446A3
:1040E000D0F8D40204EB8000D0F8C002002818D029
:1040F000407A022809D0090613D5012811D020469C
:10410000BDE81040012100F0C3B806480178204600
:1041100001F0BAFF044801782046BDE8104001F0E4
:10412000B3BF10BDE0000020E100002010B5044640
:10413000D0F8D40204EB8000D0F8C022002A18D0B6
:10414000107A022805D0032801D0042811D10021BB
:104150000AE041F21D00815C801C0244204600F010
:10416000FFFD002805DA01212046BDE8104000F0DF
:104170008FB810BD10B50446D0F8D40204EB80000F
:10418000D0F8C022002A18D0107A88B1012814D1A2
:1041900041F21D00815C801C0244204600F0E0FDDD
:1041A00000280ADA2046BDE81040012100F070B86E
:1041B0002046BDE81040FFF71DBF10BDD0F8D41257
:1041C00000EB8100D0F8C002002801D0002101726C
:1041D0007047000070B50546D0F8D40205EB8000AA
:1041E000D0F8C042002C26D00020207204F5805167
:1041F000607281F8610001F8600F8870D5F8D40210
:1042000005EB8000D0F8C4020168002088470A4E00
:104210002846317801F012FE08480178284601F05E
:104220000DFE1F2341F21000221831782846BDE808
:10423000704001F091BE70BDE1000020E000002060
:1042400070B50546D0F8D40205EB8000D0F8C04226
:10425000002C17D000202072012060720A480178DB
:10426000284601F018FD094E2846317801F013FD6B
:104270001F2341F21000221831782846BDE8704013
:1042800001F06ABE70BD0000E0000020E1000020E7
:1042900070B50546D0F8D40205EB8000D0F8C042D6
:1042A000002C1BD004F580520D48106382F83C109E
:1042B0000020207241F2300022180A480D230178B4
:1042C000284601F00EFF1F2341F210002218064875
:1042D00001782846BDE8704001F03EBE70BD000088
:1042E00055534253E0000020E10000202DE9F04149
:1042F00086B014216846FCF705F92748C16C41F0E7
:104300000401C164C16C01F004010591C16C41F06C
:104310000201C164C16C01F002010591C16C41F060
:104320001001C164C16C01F010010591C16C41F034
:104330000101C164C06C194F00F00100059000221A
:1043400004213846FDF750FDDFF854804FF48076A5
:10435000002231464046FDF747FD0420009001252C
:104360000024CDE90154694638460394FDF728FC42
:104370000096CDE90154694640460394FDF720FCC0
:10438000E802CDE90004694606480294FDF718FCEE
:1043900006B0BDE8F08100000010024000040048B3
:1043A00000100048000800480E4810B50C49016094
:1043B00000210C224160C0E902120161416181616A
:1043C000C161016201638162C1624162FDF790FDDA
:1043D000002803D0BDE81040FDF703BB10BD00006E
:1043E00000240040B80100200B4810B509490160C5
:1043F00000210422C0E901121122C0E90312416127
:104400008161FEF709FE002803D0BDE81040FDF7EA
:10441000E8BA10BD001000A0F401002010B5002281
:104420000F49104801F024FC08B1FDF7DAFA0E49F3
:104430000C4801F0DAFF08B1FDF7D3FA0B4909483F
:1044400001F044FF08B1FDF7CCFA064802F050F83D
:10445000002803D0BDE81040FDF7C3BA10BD00002E
:104460003400002038020020A80000208400002032
:10447000FEE7FEE70148FEF763B800008C27002046
:104480002DE9F0410025124F2C4601260022402143
:104490003846FDF7A9FC022003F020F90122402153
:1044A0003846FDF7A1FC022003F018F940213846F8
:1044B000FDF795FC18B106FA04F02843C5B23A207E
:1044C00003F00CF9641C082CE0DB2846BDE8F08101
:1044D000000400482DE9F0411A4F00252A464021EA
:1044E0003846FDF781FC4FF4F07003F0F7F8012235
:1044F00040213846FDF778FC462003F0EFF81248DB
:10450000134C01681148B1FBF0F202EB4203C3EB1C
:10451000C2126368B1FBF0F0616803EB8206C0EB86
:10452000001001EB800061688142FCD340213846D5
:10453000FDF755FC00B901256068B042FCD3284660
:10454000BDE8F081000400483000002040420F0028
:10455000001000E070B5124E0546002400224021F4
:104560003046FDF741FC0F2003F0B8F8E80706D00D
:10457000012240213046FDF737FC2D2008E02C2099
:1045800003F0ACF8012240213046FDF72DFC01205C
:1045900003F0A4F86D08641C082CDFDB70BD00007C
:1045A000000400482DE9F0470E4601EBC60100EB80
:1045B00081040568D4E909101434884202D9012025
:1045C000BDE8F087081AA168814200D20846C01CE5
:1045D000870805EB461817E0A0EB0109A0684845DD
:1045E00000D2814609F1030087081FFA89F3F2B26D
:1045F0002846E16802F0B6FDE16801EB0900E060E1
:10460000616901EB09006061D8F8180980B2B8420D
:1046100005D3D4E90401814201D20028DCD1D4E9D8
:104620000401884208D806F00F0101208840D5F81F
:1046300034188143C5F834180020C1E770470000E2
:1046400000B595B04FF480700690052000900020D2
:104650004FF08072CDE9080205900122CDE90E02EB
:1046600007900B900C900D90CDE911201020109028
:1046700080040B4613900EAA69460448FEF718FC06
:10468000002800D0012015B000BD000074010020FA
:10469000F0B54B6A4FF040662BB1B24203D08B6A43
:1046A00004685B1E23618D6900240B6A002D5AD0BB
:1046B00063B305688B68EB61CD69BDB1D1E90B349B
:1046C00023434F6A4C6B3C4323438C8A43EA844325
:1046D0000C6923430C6A2343CC6823438C692B4326
:1046E000234325E0006849688161F0BDD1E90B35BD
:1046F0002B434E6A4D6B35432B438D8A43EA8543EA
:104700000D692B430D6A2B438D6923E0CF69BFB13F
:10471000D1E90B342343D1F824C04C6B44EA0C0498
:1047200023438C8A43EA8443CC6823433B432B4393
:104730000C682343046813436361B242D2D1F0BDD5
:10474000D1E90B3633434F6A4E6B3E4333438E8A77
:1047500043EA864309682B430B43016813434B61CB
:1047600000688461F0BD3BB305688B68EB61CD697F
:1047700095B1D1E90B3423434F6A4C6B3C4323433F
:104780008C8A43EA84430C6923430C6A2343CC6834
:1047900023432B438C69CCE7D1E90B352B434E6A7D
:1047A0004D6B35432B438D8A43EA85430D692B437B
:1047B0000D6A89692B43CFE7CD696DB1D1E90B341F
:1047C00023434F6A4C6B3C4323438C8A43EA844324
:1047D000CC6823432B43ADE74B6A002BC2D0D1E911
:1047E0000B5635434E6B898A1E43354345EA81415A
:1047F000114302685161B3E710B590B04FF4807077
:1048000006908520009000204FF08071CDE90801CE
:1048100001210590CDE90A1007900C9041F28834EF
:104820000D90224669461748FEF79BFB30BB224697
:104830000EA91448FEF78AFC00BB124800F0ACF841
:10484000E0B98120F022009092FAA2F29DF838009F
:104850000A21B2FA82F2914020F0F00008438DF86C
:104860003800224669460748FEF77BFB30B92246EE
:104870000EA90448FEF7D0FC002800D0012010B09B
:1048800010BD0000740100201A4810B5016D86B0FB
:1048900041F480710165016D01F480710591016B36
:1048A00041F480710163016B21F480710163C16C7B
:1048B00041F01001C164C06C0F4C00F01000059075
:1048C0004FF400600090022001900120029003202C
:1048D00003900A20049069462046FDF771F94FF4D1
:1048E000744000900020029069462046FDF768F968
:1048F00006B010BD001002400010004810B58EB088
:104900004FF4807006906620009000200790089079
:10491000099005900B900C9041F288340D9022463E
:1049200069460A48FEF71DFB68B9992000902246A7
:1049300069460648FEF715FB28B921460348FFF7EC
:104940007FFE002800D001200EB010BD74010020B1
:104950002DE9F041984616460F460446069D08E0AC
:10496000681C06D0FDF746FAA0EB0800A8420AD85A
:104970004DB120688068384000D00120B042EFD1AE
:104980000020BDE8F081042084F83900E06B40F09D
:104990000100E0630120F4E730B595B000244FF446
:1049A00080700690062005940794089441F288359B
:1049B000009009940B940C942A4669460D940F4874
:1049C000FEF7CFFAB0B902200E900F900120CDE98A
:1049D00011041020109080041390052000904FF0D7
:1049E000807009902B460EAA69460448FEF760FACB
:1049F000002800D0012015B030BD00007401002057
:104A00002DE9F041444C05468846E06800268107C0
:104A100028680DD0E16801F00301814216D1A8B1E8
:104A2000E0686968C0F30210401C88420ED120E0A3
:104A3000012804D0022805D0032807D108E0216806
:104A4000890701E021684905002907DB01265FE0AD
:104A50002168890302D421684903F5E7E1686A689F
:104A60006FF00F0321F0730103EB021211430143B6
:104A7000E160206820F080602060FDF7BBF9074608
:104A800005E000BFFDF7B6F9C01B022837D8206843
:104A90000001F7D4B8F1000F18D0B8F1010F1ED003
:104AA000287D4FF07E41400801EB4060A96840EA54
:104AB00001202169194A114008432061206840F013
:104AC00080602060FDF796F907461AE0A868E9685B
:104AD0000002090940EA41402169114AEBE7288AAE
:104AE0001049400801EB4050A96840EA01202169C3
:104AF0000D4AE0E7FDF77EF9C01B022801D9032625
:104B000006E020680001F5D52069A9690843206105
:104B10003046BDE8F081000000100240FF80FFF940
:104B2000FF80FDFF0000E0FFFF809FFF2DE9F041C7
:104B30003D4C06468846E0680025810730680DD068
:104B4000E16801F00301814216D1A8B1E068716803
:104B5000C0F30210401C88420ED120E0012804D08E
:104B6000022805D0032807D108E02168890701E061
:104B700021684905002907DB012551E021688903E7
:104B800002D421684903F5E7E16872686FF00F030A
:104B900021F0730103EB021211430143E16020682D
:104BA00020F080502060FDF725F9074605E000BFA2
:104BB000FDF720F9C01B022829D820688000F7D40F
:104BC000B8F1000F15D0307C4FF07E41400801EB6A
:104BD0004060B16840EA01206169144A114008430D
:104BE0006061206840F080502060FDF703F90746BF
:104BF0000FE0B068F1680002090940EA41406169CC
:104C00000B4AEBE7FDF7F6F8C01B022801D9032594
:104C100006E020688000F5D560697169084360612D
:104C20002846BDE8F081000000100240FF80FFF937
:104C3000FF80FDFFF8B51C4D06460024A86DC0009E
:104C400002D5FEF7DDF80DE0A86D40F08050A865B4
:104C5000A86D00F080500090FEF7D2F8A96D21F009
:104C60008051A965B0F5007F04D0802E07D94FF0A0
:104C700003040AE0802E08D9A02E01D804E001D157
:104C8000022402E0702E00D101240848016821F0BE
:104C9000070121430160006800F00700A04201D035
:104CA0000120F8BD0020F8BD0010024000200240A5
:104CB00030B5D0F8D4424FF0FF3500EB8404D4F87F
:104CC000C0424CB104F580541A44A36E9A4205D9EF
:104CD0002123052200F08DFB284630BD002030BD89
:104CE0002DE9F0410446D0F8D402134604EB8006C7
:104CF0004FF0FF35D6F8C00280B100F580529769B9
:104D00007FB15F78FF0715D0997869B180290ED0FF
:104D1000517F24230522204600F06BFB2846BDE886
:104D2000F081517F2023F5E706220B490FE008228E
:104D30000A490CE0D6F8C42201EBC1011B79D26903
:104D400002EB81010A79521D934200D81A4600F005
:104D5000AFFB0020E3E700000E010020140100205B
:104D60002DE9F0411746D0F8D4224FF0FF3600EB82
:104D70008202D2F8C04264B33B7800254FF00208AB
:104D8000252B76D00FDC1A2B60D005DC13B3032B58
:104D900025D0122B17D127E01B2B2AD01E2B49D050
:104DA000232B10D183E05A2B66D006DC282B79D038
:104DB0002A2B78D02F2B06D19CE09E2B74D0A82BC9
:104DC00073D0AA2B72D02023052200F012FB84F8A6
:104DD000098024E03A46BDE8F04100F039BB3A468C
:104DE000BDE8F04100F0C2BA3A46BDE8F041FFF735
:104DF00077BF04F5805292F86230012B04D13B79E1
:104E000003F00303022B78D0397901F00300012865
:104E10000BD0022806D0C843800706D007E03046F2
:104E2000BDE8F08182F8628001E082F86250284695
:104E3000E560F5E7387928B141F2620001210155BA
:104E4000E56017E041F262000555F9E70846D2F83F
:104E5000C4120426C968884720B12F48817841F0E0
:104E6000800181703879042800D8064632462A49E4
:104E700014E021E02846D3E70846D2F8C4120826F9
:104E8000C968884720B12548C17841F08001C170C8
:104E9000387A082800D8064620493246204600F0D5
:104EA00007FBE7E712E01BE00BE014E01DE03A46E9
:104EB000BDE8F04100F016BA3A46BDE8F04100F016
:104EC0007CB93A46BDE8F04100F0B5B93A46BDE8D4
:104ED000F04100F0C7B83A46BDE8F04100F015B91E
:104EE0003A46BDE8F04100F0F3BA3A46BDE8F04179
:104EF00000F05ABB7A78920704D52423052200F0EB
:104F000078FA8CE704F58052136FD26EFFF7D0FE6B
:104F100000288CDA83E700001C010020200100201B
:104F20002DE9F0470746D0F8D402894607EB800008
:104F30004FF0FF38D0F8C062FEB106F580544FF450
:104F40008052B4F86410256F4D43954200D3154646
:104F5000B5FBF1F1D0F8C4028BB206F11001D0F824
:104F600010C0E26E8A464846E047002808DA11235E
:104F700004224946384600F03CFA4046BDE8F08736
:104F80000D482B4652460178384601F0AAF8B4F88D
:104F90006400E26EB5FBF0F1B5FBF0F01144E166A0
:104FA000216F081A2067A16BA1EB0501A16301D154
:104FB000032030720020E1E7E00000202DE9F047F7
:104FC0000746D0F8D402894607EB80004FF0FF383F
:104FD000D0F8C012F1B101F580544FF48055B4F807
:104FE0006420266F5643AE4200D32E46B6FBF2F243
:104FF000D0F8C40293B21031D0F814C0E26E8A46E1
:105000004846E047002808DA032304224946384688
:1050100000F0EFF94046BDE8F087B4F86400E26EB6
:10502000B6FBF0F11144E166B6FBF0F1226F531AC2
:105030002367A16BA1EB0601A1630BD04343AB42F5
:1050400000D32B46064852460178384600F084FFCC
:105050000020E0E700213846FFF71AF9F8E70000E2
:10506000E10000202DE9F0470746D0F8D4021646AB
:1050700007EB80008946D0F8C0524FF0FF3855B397
:10508000297AB1BB05F58054217F09062DD594F806
:105090006210022905D0D0F8C402816848468847CA
:1050A00030B13A2302224946384600F0A2F912E014
:1050B0007088317940BA000440EA0122707949468B
:1050C0000243E266B6F8070043BA38462367FFF7A3
:1050D000EFFD002802DA4046BDE8F087B4F864101E
:1050E000206F4843A169884204D02023617F0522B4
:1050F000DAE701E0022028724FF48050E860494668
:105100003846BDE8F047FFF70BBF2DE9F0470746EB
:10511000D0F8D402164607EB80008946D0F8C0527A
:105120004FF0FF387DB3297A81BB05F58054217F8C
:10513000090633D594F86210022905D0D0F8C402CC
:1051400081684846884730B13A23022249463846AA
:1051500000F04FF917E07088317940BA000440EA56
:10516000012270790243E266F088317A40BA000485
:1051700040EA0123707A4946034338462367FFF724
:1051800097FD002803DA4046BDE8F0870CE0B4F84C
:105190006410206F4843A169884203D02023617FB7
:1051A0000522D4E7022028724FF48050E860494677
:1051B0003846BDE8F047FFF7B3BE2DE9F04105469C
:1051C000D0F8D4020F4605EB80004FF0FF36D0F840
:1051D000C0425CB1D0F8C402436841F264002218B6
:1051E000001D211838469847F0B902E03046BDE866
:1051F000F08104F5805191F86200022814D0886E85
:10520000401E020E2274020C6274020AA274E07440
:10521000002020756075B1F86400010AA175E07581
:105220000820E0600020E2E73A23022239462846BF
:1052300000F0DFF8DAE72DE9F0410646D0F8D402B5
:10524000154606EB80008846D0F8C0424FF0FF3785
:105250005CB1D0F8C402436841F264002218001D1A
:10526000211840469847A8B902E03846BDE8F081C9
:1052700004F5805292F8620002280BD06889297BDD
:1052800040BA000440EA0120697B0843E060002046
:10529000014609E03A2302224146304600F0A9F8CF
:1052A000E3E72318401C1974E3688342F9D8906E31
:1052B000401E030E2375030C6375030AA375E07586
:1052C00021766176B2F86400010AA176E0766889F9
:1052D000297B40BA000440EA0120697B0843E06072
:1052E0000020C3E72DE9FC410546D0F8D4020F4663
:1052F00005EB80004FF0FF36D0F8C04244B1D0F843
:10530000C4026A4601A943683846984738BB02E0A0
:105310003046BDE8FC8141F26200005D02281ED0EB
:10532000002001462218401C80B211740C28F9D3C9
:105330000820E0740198401E020E2275020C62756E
:10534000020AA275E075022020766176BDF80000A1
:10535000010AA176E0760C20E0600020D9E73A232C
:1053600002223946284600F044F8D1E770B5D0F85B
:10537000D4124FF0FF3400EB8101D1F8C01231B3E9
:1053800001F580539D6925B3002005460C18401C8B
:10539000C0B225741228F9D3702008740C20C87587
:1053A00093F8600093F86140A0421AD001EBC0046A
:1053B00004F58254401C26788E7426790E77647921
:1053C000C0B24C7783F86000042808D009E020467A
:1053D00070BD597F2023052200F00BF8F7E783F812
:1053E00060501220C8601079122800D8C8600020D0
:1053F00070BD10B5D0F8D41200EB8100D0F8C01207
:10540000002924D001F5805090F8614001EBC404DC
:1054100004F5805484F8402090F8612001EBC2022A
:1054200002F5805282F8443090F86130002201EB9E
:10543000C30101F5805181F8452090F86110491CA5
:10544000C9B280F86110042901D180F8612010BD33
:105450002DE9F0410546D0F8D402884605EB8000DE
:105460004FF0FF36D0F8C042E4B104F580518A69AC
:1054700032B1497F202305222846FFF7BAFF11E009
:1054800091F862100527022905D0D0F8C40281687E
:105490004046884748B13A23022241462846FFF752
:1054A000A8FF27723046BDE8F0810020E060FAE7EF
:1054B00010B508B1C26007E04FF0FF3010BD521EBA
:1054C00092B284188B5C2374002AF8D1002010BD9E
:1054D0002DE9F0470646D0F8D402174606EB8000C7
:1054E0008946D0F8C0524FF0FF38DDB3297A29B190
:1054F00049463046BDE8F047FFF760BD05F58054EA
:10550000A16991B3217F090637D4D0F8C40281681C
:105510004846884728B13A230EE03046FFF769FF36
:1055200020E0D6F8D40206EB8000D0F8C402C168AF
:105530004846884718B1272302224946EDE7788874
:10554000397940BA000440EA012278794946024399
:10555000E266B7F8070043BA30462367FFF7A8FBB7
:10556000002803DA4046BDE8F08706E0B4F864009E
:10557000236F4343A069984203D02023617F052213
:10558000CBE74FF48050834200D3034601202872BA
:10559000044805F110020178304600F0DDFC0020DF
:1055A000E1E70000E10000202DE9F0470746D0F8D0
:1055B000D402164607EB80008A46D0F8C0524FF05E
:1055C000FF398DB3297A29B151463846BDE8F047F5
:1055D000FFF7F4BC05F58054A16911B1217F0906DC
:1055E00006D5617F202305223846FFF702FF34E00D
:1055F000D0F8C4028168504688474FF0050808B1CA
:105600003A230AE0D7F8D40207EB8000D0F8C402AE
:10561000C1685046884740B1272302225146384688
:10562000FFF7E7FE85F8088017E07088317940BA07
:10563000000440EA012270790243E266F088317A80
:1056400040BA000440EA0123707A514603433846C9
:105650002367FFF72DFB002802DA4846BDE8F087F4
:10566000B4F86400236F4343A0699842B9D14FF462
:105670008050834200D3034601202872044805F17C
:1056800010020178384600F067FC0020E6E70000D1
:10569000E100002030B585B014460D466846FCF7A1
:1056A0002DF80098000B28604FF48050208005B042
:1056B000002030BD0020704710B5FCF72BF838B142
:1056C0000448FDF7A9FCFCF75BF808B1032010BD06
:1056D000002010BDF401002010B50324FCF71AF8D7
:1056E00020B1012805D0022803D101E0002400E008
:1056F0000124204610BD00207047000010B50C4664
:105700001803110302460E48FCF76AF80C4A002001
:105710004FF48051135CFF2B07D00020135C2354FF
:10572000401C8842FAD3002010BD401C8842F1D3AF
:10573000002002462254401C8842FBD3F3E70000BD
:10574000140700202DE9F0470E4611034FF480584E
:10575000002501270C4642462548FCF741F8002069
:105760004146325C0AB1002702E0401C8842F8D36F
:105770001F4A0020C246115CFF2901D0012502E02A
:10578000401C5045F7D3DFF86C8067B165B3012248
:1057900004214046FCF728FB2046FBF75DFF002272
:1057A000042140461EE0DFF850904FF4807765B149
:1057B000012204214046FCF717FB2046FBF74CFF73
:1057C000002204214046FCF70FFB012239464846DF
:1057D000FCF70AFB214652463046FCF72FF8002220
:1057E00039464846FCF700FB0020BDE8F087000082
:1057F000140700200004004800100048704701789A
:10580000407841EA00207047FCF7FABA10B596B02C
:1058100044216846FAF776FE142111A8FAF772FEC1
:105820004FF40070FDF7B0FA08B172B6FEE7FDF76D
:10583000EFFA194850F8901F21F0180101601C2060
:105840000090012002900590002460210690CDE98F
:1058500007410221CDE90A100C9020200D9007206D
:10586000CDE90E01082010906846FEF711F808B146
:1058700072B6FEE70F2011900320CDE912041494B4
:10588000002111A81594FDF709FF08B172B6FEE7D3
:10589000FDF724FD16B010BD00100240024801685B
:1058A00041F470010160704788ED00E010B586B0EA
:1058B00001F006FF14216846FAF724FE402000900C
:1058C00011200190012002900320084C03906946AA
:1058D0002046FCF775F9012240212046FCF784FAA6
:1058E0004FF47A7001F0FAFE06B010BD00040048D3
:1058F00010B52DED028BFEF7EDFD9FED188A48B334
:10590000CC20FEF727FE4420FEF724FE40F2EE20D6
:1059100001F0E4FEFEF7DEFDE0B1CC20FEF71AFE5A
:10592000BE20FEF717FEFEF7ABFD0446FEF7A8FD0E
:10593000FF2C01D1FF280DD044EA002000B200EE78
:10594000100ADFED070AB8EEC00A20EE200ABDEC0F
:10595000028B10BDB0EE480AF9E70000000000001D
:105960000000803D10B5D0F8B8220024526890475E
:1059700000B10324204610BD00207047002070476E
:10598000134610B50A46002100F0E6FA002010BDCB
:10599000134610B50A46002100F0A3FB002010BDFD
:1059A00010B50446802100F06FFB2046BDE8104092
:1059B000002100F069BB10B50521C0F89412002346
:1059C0001A46194600F0C8FA002010BD10B502238F
:1059D000C0F8943282611346C2610A46002100F089
:1059E00080FB002010BD10B50421C0F894120023E4
:1059F0001A46194600F075FB002010BD10B50A4686
:105A0000024903A000F00DF9004810BD1405002064
:105A10004D534320436F6E66696700001220088073
:105A2000004870475400002010B50A46024903A000
:105A300000F0F7F8004810BD140500204D53432036
:105A4000496E746572666163650000000420088019
:105A5000004870475000002010B50A46024903A0D4
:105A600000F0DFF8004810BD1405002053544D69C4
:105A700063726F656C656374726F6E696373000047
:105A800010B50A46024903A000F0CBF8004810BD4B
:105A90001405002053544D3332204D61737320534D
:105AA000746F72616765000010B51A2008800A489B
:105AB0000168001D0468001D0068081809D008224C
:105AC0000649FEF787F90549042210312046FEF702
:105AD00081F90248801E10BD9075FF1F6A000020EA
